:100000000C942E050C944B050C944B050C94E12696
:100010000C944B050C944B050C944B050C944B0520
:100020000C944B050C944B050C9447100C947C14C9
:100030000C94A2200C944B050C944B050C944B058E
:100040000C944B050C944B050C944B050C944B05F0
:100050000C944B050C942E110C944B050C944B05F1
:100060000C944B050C944B050C944B050C944B05D0
:100070000C944B050C944B050C944B050C944B05C0
:100080000C944B050C944B050C944B050C944B05B0
:100090000C944B050C944B050C944B050C944B05A0
:1000A0000C944B050C944B050C944B0539001E0029
:1000B0001F00200021002200290014001A0008005F
:1000C000150017002B0004001600070009000A00A5
:1000D000E1001D431B00060019000500E300E200DB
:1000E0004C41E0002C43AE003500270026002500DF
:1000F000240023002F00130012000C0018001C0025
:10010000340033000F000E000D440B00E5003800F2
:100110003700360010001100E700E6002A42E40034
:100120005800AE00000000003B000000000000008E
:1001300000001E022E001F02200200000000260206
:1001400027023002310224020000000000002602D3
:100150002702000000000000000000000000000076
:100160000000560055005400000000000000570039
:10017000610060005F002D00000085005E005D00F2
:100180005C002D02000067005B005A00590062000D
:1001900000000000000000000000000045003A00E0
:1001A0003B003C003D003E000000210222023802DC
:1001B00064022502000030003200870064008702DC
:1001C000000000000000000000000000000000002F
:1001D0000000000000000000440043004200410015
:1001E00040003F0025026412380222022102000072
:1001F0008712640087003200300000000000000019
:1002000000000000000000000000000000000000EE
:100210000000000045003A003B003C003D003E006D
:100220000000000000000800150017000000E002B8
:10023000E101070009000A000000000000000600BC
:100240001900050000000000000000000000000090
:10025000440043004200410040003F0000004600CF
:100260004D004B004E004A00000049004F00520074
:1002700051005000000000002B0018000F0000008B
:10028000000000000000000000000000000000006E
:100290000000000000000000007C0000E052E1527D
:1002A0001D700000000000001D7000000000000034
:1002B000000000000000000000000000010001003C
:1002C000010001000100000000000000000000002B
:1002D000000000000000000000000000000000001E
:1002E00000000000A900A800AA0000000000000013
:1002F000AB00AE00AC0000000100010001000100F5
:100300000100000000DA0281FFD9F1DB20A4A62E53
:10031000AF00A0C0D30000A1C8D30000AED580A814
:100320001F408D14200007087F0807003E5B4F5BCD
:100330003E003E6B4F6B3E001C3E7C3E1C00183C5A
:100340007E3C18001C577D571C001C5E7F5E1C0005
:1003500000183C180000FFE7C3E7FF00001824184E
:100360000000FFE7DBE7FF0030483A060E002629D1
:1003700079292600407F05050700407F05253F00BD
:100380005A3CE73C5A007F3E1C1C0800081C1C3EDF
:100390007F0014227F2214005F5F005F5F00060968
:1003A0007F017F00006689956A0060606060600080
:1003B00094A2FFA2940008047E04080010207E206E
:1003C000100008082A1C0800081C2A0808001E1033
:1003D000101010000C1E0C1E0C0030383E3830007F
:1003E000060E3E0E060000000000000000005F0048
:1003F0000000000700070000147F147F1400242A67
:100400007F2A1200231308646200364956205000E8
:10041000000807030000001C224100000041221CCC
:1004200000002A1C7F1C2A0008083E0808000080E3
:100430007030000008080808080000006060000034
:100440002010080402003E5149453E0000427F4012
:1004500000007249494946002141494D33001814B2
:10046000127F10002745454539003C4A4949310073
:1004700041211109070036494949360046494929B1
:100480001E000000140000000040340000000008BE
:100490001422410014141414140000412214080002
:1004A0000201590906003E415D594E007C121112AD
:1004B0007C007F49494936003E41414122007F414D
:1004C00041413E007F49494941007F090909010036
:1004D0003E41415173007F0808087F0000417F4181
:1004E00000002040413F01007F08142241007F406E
:1004F000404040007F021C027F007F0408107F0004
:100500003E4141413E007F09090906003E4151211B
:100510005E007F0919294600264949493200030136
:100520007F0103003F4040403F001F2040201F004C
:100530003F4038403F00631408146300030478040C
:1005400003006159494D4300007F414141000204CD
:1005500008102000004141417F0004020102040014
:1005600040404040400000030708000020545478F9
:1005700040007F284444380038444444280038442C
:1005800044287F0038545454180000087E090200A3
:1005900018A4A49C78007F080404780000447D40DF
:1005A00000002040403D00007F1028440000004132
:1005B0007F4000007C04780478007C080404780004
:1005C000384444443800FC18242418001824241803
:1005D000FC007C080404080048545454240004041B
:1005E0003F4424003C4040207C001C2040201C0054
:1005F0003C4030403C004428102844004C909090EF
:100600007C004464544C4400000836410000000063
:1006100077000000004136080000020102040200D9
:100620003C2623263C00000000000000404040F033
:10063000F8F8FF38FFF8F83FF8F8FF38FFF8F8F05F
:1006400040404000000000000080C0C0C0800000AA
:10065000C0C08000000080C0C000C0C0000080C0DA
:10066000C00000000000C0C0C0C0C000C0C000008A
:10067000000000000000000000000000000000007A
:10068000000000000000000000000000000000006A
:10069000000000000000000000000000000000005A
:1006A0000000000000C0F0F8FC3E1E060100000043
:1006B0007F4141417F007F4141417F000080C0E098
:1006C0007E5B4F5BFEC00000C000DCD7DEDEDED705
:1006D000DC00C0000000000000000000000000007E
:1006E000000000000000000000000000494949FF30
:1006F000FFFFFFE0DFBFBF00BFBFDFE0FFFFFFFF87
:1007000049494900000000001F3F6060E0BF1F0032
:100710007F7F071E381E077F7F007F7F0E1F3B7184
:100720006000000000007F7F0C0C0C007E7E007FCC
:100730007E0303007F7E03037E7E03037F7E000F24
:100740003E703C063C703E0F00327B49493F7E00C4
:100750007F7E0303001E3F69696F260000000000D2
:100760000000000000030F1F3F3C78706000000095
:100770007F4141417F007F4141417F00307B7F7855
:1007800030202030787F3B0003000F7F0F0F0F7F5A
:100790000F00030000000000000000000000000047
:1007A000000000000000000000000000010101073F
:1007B0000F0F7F0F7F0F0F7E0F0F7F0F7F0F0F0722
:1007C0000101010000000000000000000001010024
:1007D0000000000000000000000000000000000019
:1007E0000000000000000000000000000000000009
:1007F00000000000000000000000000000000000F9
:1008000000000000000000000000000000000000E8
:1008100000000000000000000000000000000000D8
:1008200000000000000000000000000000000000C8
:1008300000000000000000000000000000000000B8
:1008400000000000000000000000000000000000A8
:100850000000000000000000000000000000000098
:1008600000000000000000AF00AE4350534C4B00AE
:100870000A0A00556E646566004C6F776572005217
:100880006169736500426173650A004C41594552C4
:10089000000A0A004D6F640A00436C6D6B005177CB
:1008A0007274000A0A008081828384858687888921
:1008B0008A8B8C8D8E8F9091929394A0A1A2A3A4E9
:1008C000A5A6A7A8A9AAABACADAEAFB0B1B2B3B460
:1008D000C0C1C2C3C4C5C6C7C8C9CACBCCCDCECFA0
:1008E000D0D1D2D3D40005010902A10185020901AA
:1008F000A1000509190129081500250195087501B0
:1009000081020501093009311581257F950275089D
:10091000810609381581257F950175088106050C2A
:100920000A38021581257F950175088106C0C0052A
:10093000010980A101850319012AB700150126B715
:1009400000950175108100C0050C0901A101850405
:1009500019012AA002150126A00295017510810037
:10096000C005010906A1018506050719E029E7155B
:100970000025019508750181020507190029EF1569
:1009800000250195F07501810205081901290595D9
:100990000575019102950175039101C005010906D4
:1009A000A101050719E029E7150025019508750142
:1009B00081029501750881010507190029FF1500BD
:1009C00026FF0095067508810005081901290515FF
:1009D000002501950575019102950175039101C0EE
:1009E00009023B00020100A0FA0904000001030112
:1009F00001000921110100012244000705810308BB
:100A00000001090401000103000000092111010097
:100A10000122B60007058203200001120100020036
:100A200000000832FC87020100010200010C0353A0
:100A3000006F0066006C00650000001A034A006F3A
:100A4000007300650066004100640061006D006392
:100A50000069006B000000040309040011241FBE9C
:100A6000CFEFDAE0DEBFCDBF11E0A0E0B1E0E0E41F
:100A7000F2E502C005900D92AE3AB107D9F725E034
:100A8000AEEAB1E001C01D92A434B207E1F70E94C2
:100A9000C9200C94DF280C940000482F20914005B9
:100AA0009091070557E0291302C080E0089530E0D7
:100AB000529FF001539FF00D1124E85FFA4F81819E
:100AC000681306C08081481303C085818111EECF71
:100AD0002F5F3F4F2770E7CFE8EDF0E080818E7FFA
:100AE00080831092E2001092DA001092E100A0EEF2
:100AF000B0E08C9181608C9380818F77808319BC6A
:100B0000A7EDB0E08C918E7F8C9380818F7E808367
:100B10001092F20408952091E4003091E50095E6EA
:100B2000A9012091EC00822F817020FF06C08091E6
:100B3000E80080FF06C080E008952091E80022FDD3
:100B40001AC08091FD04882389F0853089F0809156
:100B5000EB0085FD0FC02091E4003091E5004217C5
:100B60005307F9F29150E1F684E0089582E0089588
:100B700083E0089581E008958091FF0487FF13C00A
:100B80008091E80082FF06C08091E8008B77809317
:100B9000E80004C08091FD048111F2CF0895809196
:100BA000FD048823D9F38091E80080FFF8CF80917D
:100BB000E8008E77ECCF982F9093E900242F762FC2
:100BC00050E0891731F07091EC002091ED005091C8
:100BD000F00021FD07C09F5F973071F78093E90017
:100BE00081E008953091EB003E7F3093EB0030912F
:100BF000ED003D7F3093ED003091EB00316030939C
:100C0000EB007093EC002093ED005093F0002091E6
:100C1000EE0027FDE0CF80E00895B0E0A0E0E3E142
:100C2000F6E00C941B28C8EDD0E088818F7E888385
:100C3000E7EDF0E080818160808384E082BF81E025
:100C40008093F20488818E7F888302EE10E0F801A1
:100C500010821092DA0081EEC82ED12CF60110829B
:100C600088818F77888388818068888388818F7D59
:100C7000888319BC1092FD041092FE041092FC04AB
:100C80001092FB0490EEE92EF12CF70180818B7F0E
:100C9000808388818160888342E060E080E00E94F8
:100CA000DB05F60180818E7F8083F8018081816081
:100CB0008083808188608083F70180818E7F80833C
:100CC000888180618883CDB7DEB7E8E00C9437284F
:100CD000FC01809105059091060586179707A0F005
:100CE0006115710529F49091E8009E779093E800D2
:100CF00090E06115710551F4911108C08091E800F0
:100D000082FF34C080E00895BC01F2CF8091FD04E1
:100D10008823C1F18530C1F18091E80083FD30C0A6
:100D20008091E80082FDEACF8091E80080FFE1CF6A
:100D30008091F3002091F200382F6115710519F0B0
:100D40002830310558F091E02830310509F090E065
:100D50002091E8002E772093E800CBCF81918093FB
:100D6000F100615071092F5F3F4FE7CF8091FD0483
:100D7000882341F0853041F08091E80083FFBECFA9
:100D800081E0089582E0089583E0089587E797E77A
:100D9000909301088093000888E19AE00FB6F894D8
:100DA000A895809360000FBE90936000FFCF2FB78F
:100DB000F8946091EE047091EF048091F0049091AA
:100DC000F1042FBF089580914D01089590914E0137
:100DD0009130D1F49091EB0497FF16C0E82FE6957F
:100DE000E695E695EE31E0F4F0E0E854FE4F282F6A
:100DF000277081E090E001C0880F2A95EAF780957E
:100E00009281892382830895E2EBF1E09191891325
:100E100003C0DF0111971C9291E0E83BF907B1F79D
:100E2000089590914E019130C1F49091EB0497FF99
:100E300014C0E82FE695E695E695EE31F8F4F0E07B
:100E4000E854FE4F877021E030E001C0220F8A9500
:100E5000EAF78281822B82830895A2EBB1E0EFEF63
:100E600090E02D91821751F0EF3F19F4211101C04C
:100E7000E92F9F5F9630A9F7EF3F09F408950E2EF2
:100E8000000CFF0BE055FE4FE6CFA3E0B0E0EBE433
:100E9000F7E00C9421282091E9043091EA04281706
:100EA0003907A1F09093EA048093E904E091E70404
:100EB000F091E804309751F024E029839B838A83E2
:100EC0000084F185E02DCE01019609952396E2E09C
:100ED0000C943D28A3E0B0E0E0E7F7E00C94212873
:100EE0002091E5043091E60428173907A1F090938A
:100EF000E6048093E504E091E704F091E80430977C
:100F000051F023E029839B838A830084F185E02DBF
:100F1000CE01019609952396E2E00C943D2880913C
:100F2000E304882359F0E091E704F091E804309756
:100F300029F00190F081E02D0995089580E0089551
:100F40008091D80480FD16C081FD16C082FD16C0B8
:100F50008091D7048823A1F0883280F428E0829F12
:100F6000C001112468E270E00E945428862F672B8C
:100F700039F0089582E0089584E0089588E00895A6
:100F800081E008958091D80480FD14C081FD14C0D3
:100F900082FD16C08091D604882381F08E3180F4C2
:100FA00020E5829FC00111246EE170E00E94542868
:100FB000862F089584E1089588E2089588E00895D1
:100FC00080E50895282F35EB2303C001112497FFF6
:100FD00004C080589109892F089580589F4FFBCFF6
:100FE000FC01680F791F8FEF91E32191822728E0A0
:100FF00030E087FF09C0880F892721503109C9F7E0
:10100000E617F70791F70895880FF7CF90E066236A
:10101000A1F0855B9E4FFC0120812F3F89F0E22FDC
:10102000E295EF70F0E080A190E02F7002C09595FE
:1010300087952A95E2F781700895865B9E4FEBCFE6
:1010400080E0089590E06623E9F0855B9E4FFC0107
:1010500080818F3FB1F0E82FE295EF70F0E041A181
:101060008F7021E030E0B90102C0660F771F8A95CA
:10107000E2F7CB01962F9095942391A392A1892B0F
:1010800082A30895865B9E4FE2CF9091D004E92F12
:10109000F0E04091D1049F012F5F3F4F2370332731
:1010A00042171306A9F0EE52FB4F282F2F778081AD
:1010B0008078822B60FB87F980839F5F9370909389
:1010C000D0048091CE048F5F8093CE0481E0089598
:1010D00080E0089580E0089581E08093950208956E
:1010E000F894E82FE295EF70F0E031A1282F2F70EF
:1010F00081E090E001C0880F2A95EAF7982F90953B
:10110000932391A392A1892B82A3789408950F939E
:101110001F938091E304882329F00E94D7061F9132
:101120000F9108950E94D7060091680210916902FC
:1011300020916A0230916B02600F711F821F931F12
:10114000EECF9091EB0492FF10C041E0282F247164
:10115000243009F040E031E0282F2871283009F0D0
:1011600030E0431711F02CE0822793FF10C041E0DC
:10117000282F2471243109F040E031E0282F287114
:10118000283109F030E0431711F02CE0822730912C
:10119000EC0430FF10C051E0282F2171213009F0FC
:1011A00050E041E0282F2871283009F040E0541722
:1011B00011F029E0822731FF10C041E0282F217172
:1011C000213109F040E031E0282F2871283109F061
:1011D00030E0431711F029E0822794FD877E0895BF
:1011E00082389105B9F1B0F48133910509F47DC0DD
:1011F00048F48932910509F46DC08A32910509F4E9
:101200007BC008958533910509F45FC0893391054A
:1012100009F10895833E9105D9F138F4803E910596
:1012200029F1823E910579F10895863E9105D9F123
:10123000873E910509F43EC0843E910541F5209119
:10124000EC0421FF24C08091EB0484FD19C087EEDB
:1012500090E008952091EB04237009F05AC020918A
:10126000EC0423FF14C089E290E008952091EB0480
:1012700020FD38C03091EC0430FF09C024FF43C08A
:1012800090E080E008952091EB0422FDF7CF0895CF
:101290002091EB0422FD3AC03091EC0430FD39C0BE
:1012A00024FFF5CFEDCF2091EB0423FFF0CF24FDF9
:1012B000E7CFCDCF2091EB0423FD2EC03091EC047D
:1012C00031FFEECF84EE90E008952091EB0425FFEE
:1012D000DECFC9CF2091EB0425FD21C02091EC0485
:1012E00023FFD5CF89E390E0D2CF2091EB0426FFF6
:1012F000CECF8AE290E008952091EB0426FFC7CF7D
:1013000081E390E0089583EE90E0089582EE90E00E
:10131000089580EE90E0089586EE90E0089585E3CC
:1013200090E00895972F7A30B8F46630A8F48530AD
:10133000B0F470E026E0929F600D711D1124FB0156
:101340009CE3899FE00DF11D1124EE0FFF1FE45572
:10135000FF4F85919491089580E090E0089581E099
:10136000FCCF1F93CF93DF930E94F008EC01C115CF
:1013700080E5D807F0F5C11580E4D80708F09CC0D7
:10138000C03ED10520F5CD3CD10508F082C0C83A59
:10139000D10578F4C53AD10508F073C0C130D10544
:1013A00019F1209709F1C430D105F0F4D0E0C0E084
:1013B0001BC0C33CD105D0F7C85AD0E0CC0FDD1F0D
:1013C000CD5ADE4F0990D881C02DD4640DC0C1150F
:1013D00080E2D80708F0D1C0C11581E0D80708F035
:1013E0005AC0C83ED10510F7CE01DF91CF911F91B1
:1013F0000895C03682E5D80718F5C03482E5D807CD
:1014000008F06BC0C03282E5D80708F05FC0C11594
:1014100082E5D80708F497C02C2F2695269580E200
:10142000289F900111248C2F8370C1E0D0E002C06E
:10143000CC0FDD1F8A95E2F7C22BD32BDD68D4CF0A
:10144000C03A82E5D80760F4C03882E5D80708F4CE
:1014500059C0CF71D0E0DC2FCC27C46FD06AC4CF85
:10146000C03C82E5D80708F462C0C03E82E5D807D8
:1014700008F09CCFDC2FCC27CC27DF71C06FD06A5F
:10148000B3CFC55AD0E0C05BDE4FC881D0E0D06496
:10149000ABCFD065A9CF8D2F0E94A108182FCE0108
:1014A00099270E94F008C12FD0E0DC2FCC27CC2751
:1014B000DF71C82BD92B98CFCE0199270E94F00855
:1014C000CC27DF70C82BD92BD06A8ECFCF71D0E05C
:1014D000DC2FCC27C16FD06A87CF2C2F269526957D
:1014E000277080E2289F900111248C2F8370C1E027
:1014F000D0E002C0CC0FDD1F8A95E2F7C22BD32BC0
:10150000DC6872CF2C2F26952695277080E2289FC5
:10151000900111248C2F8370C1E0D0E002C0CC0F69
:10152000DD1F8A95E2F7C22BD32BDA685DCF8C2FB3
:101530008F710E94A108C82FD0E0DC2FCC27CC27C8
:10154000DF71D06251CF8C2F8F710E94A10855E0BE
:10155000D695C7955A95E1F7CF70D0E0DC2FCC2710
:10156000282F30E084FF05C044E0220F331F4A9546
:10157000E1F7C22BD32BD06937CF8D2F8F710E940B
:10158000A108182FCE0199270E94F008C12FD0E0A2
:10159000DC2FCC27CC27DF71C82BD92BD2CF80955D
:1015A00090912C02982390932C02089580912C0204
:1015B00090910302892B90910202992391F0892B3B
:1015C00090914E01913071F49091EB0497FF0AC015
:1015D0009EE12AEB31E040E0915040F4411110923D
:1015E0000202089596E022EB31E0F5CFF901519126
:1015F0009F01552389F34F5FEFCF80914005909174
:101600000705981301C008958F5F8770FACFB0E087
:10161000A0E0EDE0FBE00C941A287C010091A00210
:101620001091A1028091780290917902082B192BD8
:10163000CFE0D0E0CC24C394D12CBC2EC6010C2E1C
:1016400002C0880F991F0A94E2F780239123892B07
:1016500049F4219790F7B12C8B2DCDB7DEB7E9E097
:101660000C943628B7018C2F0E9492090E94B10970
:10167000019779F3F1CFCF93DF93EC010E94070B31
:10168000BE010E9492090E94B109DF91CF91089595
:101690009A3078F5863068F5E82FF0E086E0989F7C
:1016A000E00DF11D11249E2F977083E0F695E795CC
:1016B0008A95E1F7EE0FFF1FEE0FFF1FE652FE4F78
:1016C00050E040E080E0219130E0092E02C03695E4
:1016D00027950A94E2F721703327042E01C0220FC8
:1016E0000A94EAF7822B4F5F5F4F4430510559F758
:1016F000089580E008959A3098F5863088F5E82FAF
:10170000F0E086E0989FE00DF11D11248E2F877088
:1017100041E001C0440F8A95EAF783E0F695E7952A
:101720008A95E1F7EE0FFF1FEE0FFF1FE652FE4F07
:1017300030E020E070E05191DF011197CB01022EE3
:1017400002C0969587950A94E2F781708195852766
:10175000842385278C932F5F3F4F2430310559F721
:1017600008959093A1028093A002089521E030E0B3
:1017700002C0220F331F8A95E2F7209530958091A1
:10178000A0029091A102822393230E94B10B08959D
:10179000909101028095892380930102282F277060
:1017A00069F4891759F09091EC0492FF07C086956F
:1017B000869586950E94B60B10920102089521E04D
:1017C00030E002C0220F331F8A95E2F78091A00219
:1017D0009091A102822B932B0E94B10B08959093BC
:1017E0007902809378020895FC0124812223C1F0BC
:1017F000808191810E943B0B92959F70963091F071
:1018000058F4925F9F70923058F4803F19F030F492
:10181000883E30F481E008959A5FF4CF843FD1F39D
:1018200080E00895883EB0F3813FD1F7F3CF292FB0
:10183000332740E02115310511F0C90148E09C0132
:1018400064E0369527956A95E1F72115310511F089
:101850004C5FC9019C013695279536952795211532
:10186000310511F04E5FC90196958795892B09F0D6
:101870004F5F842F0895A6E0B0E0E1E4FCE00C9413
:10188000202826E0FC01DE01119601900D922A9598
:10189000E1F7FC01258189819A81222399F0662351
:1018A00089F00E94070B182F682F89819A810E9466
:1018B0007B0B69817A81812F0E9492092696E3E051
:1018C0000C943C280E94480B182FF3CF0F931F93C2
:1018D000CF93DF938B01EA019091FD04943061F581
:1018E0008093E9008FEF9091E800815095FD06C04C
:1018F00095ED9A95F1F700008111F5CF8091E80000
:1019000085FF1AC00E948B05811111C08091E800EB
:1019100085FD06C08091E8008E778093E800F2CFC5
:10192000F80181918F018093F100219779F78091DF
:10193000E8008E778093E800DF91CF911F910F919F
:10194000089543E050E0BC0182E00E94660C0895D7
:1019500046E050E0BC0182E00E94660C089540E23F
:1019600050E0BC0182E00E94660C0895CF93DF93A3
:10197000EC0148E050E0BC0181E00E94660C88E088
:10198000FE01A3EFB4E001900D928A95E1F7DF919B
:10199000CF910895B0E0A0E0E0EDFCE00C941928B0
:1019A0007C015B016A018091670201E010E08A30EE
:1019B00010F40AE010E0C1E0D0E0B501C701F60183
:1019C0000995811104C021960C171D072CF4CDB781
:1019D000DEB7EAE00C943528CC9F9001CD9F300D06
:1019E000300D112490E080E045E34A95F1F70000C6
:1019F000019682179307C1F7E0CF80914E018130A5
:101A000059F58091EB0487FF27C00E94D60A809386
:101A1000B90140E250E064E072E088EB91E00E949E
:101A20007728892BC1F080E2E8EBF1E0A4E0B2E096
:101A300001900D928A95E1F7E091E704F091E804B6
:101A4000309749F086E08093B8010480F581E02D5D
:101A500088EB91E0099508950E94D60A8093B00121
:101A600048E050E064E272E080EB91E00E94772869
:101A7000892B89F388E0E0EBF1E0A4E2B2E0019089
:101A80000D928A95E1F7E091E704F091E804309730
:101A900011F30280F381E02D80EB91E0DBCF88230E
:101AA00021F00E94CF0A0E94FD0C0895882339F08E
:101AB00090912C02982B90932C020E94FD0C08957B
:101AC0001F93CF93DF93162F8A3039F481E00E9461
:101AD000030EDF91CF911F9108958D3011F480E0B6
:101AE000F6CFC0919D02D0919E0296E0FE01A7E93B
:101AF000B2E001900D929A95E1F7803E90F186E078
:101B0000FE0111928A95E9F7C0919D02D0919E0243
:101B1000111133C046E050E0BE0187E992E00E9417
:101B200077289E01225C3240892B91F52A5F3F4F36
:101B300040919F02642F70E0C9010E94FD27481B5D
:101B4000463010F4240F311D211572E0370710F0D4
:101B500030E020E02E533D4F30939E0220939D02B3
:101B6000B8CFF6E08F9FB00111246A5D7C4F46E04C
:101B700050E0CE010E946E28C7CF9E012A5F3F4FE2
:101B8000FE012E173F0731F2808180958193F9CFB6
:101B9000C90145E0969587954A95E1F741E050E007
:101BA000BA0102C0660F771F8A95E2F7CB016091F8
:101BB000C4047091C504862B972BB9016B5F7F4FCE
:101BC000E5E076956795EA95E1F702C0440F551F69
:101BD0006A95E2F7842B952B9093C5048093C404F7
:101BE000A5CF1F93CF93DF93EC01162FFE018491B5
:101BF000811104C0DF91CF911F910895612F0E9440
:101C0000600D2196F3CFCF93382FE0919D02F09194
:101C10009E02E25CF24020919F02622F70E0CF01B1
:101C20000E94FD27281B822F332369F066E00E9463
:101C30004828C82FC15010F4CF91089560E080E289
:101C40000E94600DF7CF9F01280F311D21153240F2
:101C500018F080E0F0E0E0E08E0F9F2F911D8E5392
:101C60009D4F90939E0280939D02E6CF0E94F10DBE
:101C700081E00E94030E0895AB0124E630E0BC0130
:101C800088E70E94B12521E0892B09F020E0822F0E
:101C900008958091CA049091CD04911103C091E000
:101CA00089270895882369F062E070E088E698E06B
:101CB0000E943C0E811103C08091CA0408951092C5
:101CC000CA048091CA04EBCFCF93C091CA0480911B
:101CD000CD048823D1F00E94D706605A75418F4FFA
:101CE0009F4F6093C6047093C7048093C804909379
:101CF000C904C11108C062E070E086E698E00E9465
:101D00003C0E811105C0C091CA048C2FCF9108955B
:101D100081E08093CA04F7CF9091EC0492FB2227D4
:101D200020F9281779F080FB92F99093EC046091E8
:101D3000EB047091EC0484E090E00E94C92882E0FA
:101D40000E94C80B0895CF92DF92EF92FF921F93EB
:101D5000CF93DF9300D000D0CDB7DEB7C090630241
:101D6000D0906402E0906502F09066020E94D7066F
:101D70006C197D098E099F0911E064367105810592
:101D8000910570F10E9487086E5F7F4F8F4F9F4FC4
:101D900069837A838B839C83809131019091320196
:101DA000855B9D4F4091300150E04530510510F06A
:101DB00044E050E0BE016F5F7F4F0E94842886E0C0
:101DC00090E00E948727182F882351F00E94D706A1
:101DD000609363027093640280936502909366023D
:101DE000812F0F900F900F900F90DF91CF911F9147
:101DF000FF90EF90DF90CF900895B0E0A0E0E3E097
:101E0000FFE00C941B28EC0145E050E061E572E036
:101E10000E9477288C01C0904202D0904302E0904B
:101E20004402F09045020E94D7066C197D098E0984
:101E30009F09643671058105910518F40115110596
:101E400041F18091110190911201855B9D4F40916C
:101E5000100150E04630510510F045E050E0BE0161
:101E60000E94842882E090E00E948727C82F882360
:101E700051F00E94D7066093420270934302809310
:101E80004402909345028C2FCDB7DEB7E8E00C9466
:101E90003728C1E0F8CFA1E0B0E0E1E5FFE00C9425
:101EA0001328D62E4A015901682E880F7708C301DE
:101EB0000E948727C82E882309F46AC0C30133E033
:101EC000880F991F3A95E1F7FC01E050FF4F4381DD
:101ED00050E04115510511F041E050E080509F4F16
:101EE000FC0164817581655B7D4FCE0101960E9486
:101EF0008428F40140805180628073800E94D7065C
:101F0000641975098609970964367105810591057B
:101F100038F4B701C8010E94F00799818917C1F10F
:101F20006D2C0D2C000C7708C3010E948727C82E4A
:101F3000811106C0C12C8C2D2196E0E10C942F2834
:101F4000C30123E0880F991F2A95E1F7FC01E050B7
:101F5000FF4F438150E0E416F50608F4A7018050D6
:101F60009F4FFC0164817581655B7D4FC5010E94B7
:101F70008428B701C8010E94F00799818913DACF3C
:101F80000E94D706F4016083718382839383D3CF49
:101F9000A701B801C5010E948428CDCFA8E0B0E018
:101FA000E4EDFFE00C941D2888E0E82EF12C07E515
:101FB00012E09E012F5F3F4F47E452E064E083E070
:101FC0000E944B0F082F882389F19091560280912F
:101FD0004602981759F110E090915A0280915902E7
:101FE0008917F1F0E92FF0E0E15BFD4F848587FB75
:101FF000662760F99F5F937090935A029091580200
:102000009F5F909358028F770E944508182F811187
:10201000E3CF85E090E00E948727012F082302C0CC
:102020001111F7CF8091560280934602802F289697
:10203000E6E00C943928A5E0B0E0E1E2F0E10C9490
:102040001B286B0185E0E82EF12C0CE412E09E01C8
:102050002F5F3F4F4EE352E061E080E00E944B0F64
:10206000882349F095E0FE013196A9E3B2E00190A2
:102070000D929A95E1F795E0E9E3F2E0D60101903F
:102080000D929A95E1F72596E8E00C9437281F9277
:102090000F920FB60F9211242F933F934F935F939C
:1020A0006F937F938F939F93AF93BF93EF93FF9320
:1020B0008091E10082FF09C08091E20082FF05C0AB
:1020C0008091E1008B7F8093E1008091DA0080FFB6
:1020D00024C08091D80080FF20C08091DA008E7FDC
:1020E0008093DA008091D90080FFAAC080E189BD89
:1020F00082E189BD09B400FEFDCF81E08093FD043B
:102100008091F204811109C00E946C050E940D06A5
:102110008091E20084608093E2008091E10080FF82
:102120001AC08091E20080FF16C08091E2008E7F8D
:102130008093E2008091E20080618093E2008091D0
:10214000D80080628093D80019BC85E08093FD049C
:1021500083E080934F018091E10084FF30C0809143
:10216000E20084FF2CC080E189BD82E189BD99B580
:10217000892F817090FFFBCF9091D8009F7D909325
:10218000D8009091E1009F7E9093E1009091E20051
:102190009F7E9093E2009091E20091609093E20024
:1021A0009091FE04992309F451C094E09093FD04AA
:1021B0009091FD04943009F482E080934F01809166
:1021C000E10083FF2CC08091E20083FF28C0809152
:1021D000E100877F8093E10082E08093FD0410920C
:1021E000FE048091E1008E7F8093E1008091E20007
:1021F0008E7F8093E2008091E20080618093E20014
:1022000042E060E080E00E94DB058091F0008860A1
:102210008093F00081E080934F0180934E01FF9105
:10222000EF91BF91AF919F918F917F916F915F914E
:102230004F913F912F910F900FBE0F901F901895C7
:1022400019BC1092FD041092F20467CF9091E30044
:1022500097FD02C0982FAACF93E0A8CF78941F9241
:102260001FB61F9211248F939F93AF93BF938091BA
:10227000EE049091EF04A091F004B091F104019666
:10228000A11DB11D8093EE049093EF04A093F00480
:10229000B093F104BF91AF919F918F911F901FBE9A
:1022A0001F9018952FB7F8948091EE049091EF0449
:1022B000A091F004B091F1042FBF0895CF93DF9364
:1022C000EC010E9452118C1B9D0BDF91CF91089560
:1022D0000E9452119C019091DF048091E004982BA0
:1022E00021F03093DC042093DB049091E104809191
:1022F000E204982B21F03093DA042093D904E09182
:10230000E704F091E804309749F082E08093DD041F
:102310000680F781E02D8DED94E0099508951092E7
:102320002C0280914E01813039F58091EB0487FFBA
:1023300023C0EAEBF1E08EE1DF011D928A95E9F717
:1023400090E080E00E946A0790E080E00E944507EC
:10235000109203020E94FD0C86E0EDEDF4E0DF0137
:102360001D928A95E9F71092D6041092D704109224
:10237000D8040E9468110895E2EBF1E086E0DCCF1A
:10238000AAE2B0E0E6ECF1E10C9420288FEF94E0B3
:102390002091F100FC012193CF01F5E087309F07E8
:1023A000B9F780910005833009F470C0B8F481302A
:1023B00009F447C0823009F4B5C08091E80083FF7A
:1023C00089C28091FF04909100059A3008F082C282
:1023D000E92FF0E0EF51F74D0C9468288A3009F4AA
:1023E00090C08B3009F46FC0893039F78091FF04B9
:1023F000813219F780910305909104050297E8F660
:102400008091E800877F8093E8008091E80082FF58
:1024100038C09091F3008091F200029731F48091DE
:10242000F100813011F0863021F48091F100809329
:102430004D018091E8008B778093E8000E94BC05F5
:10244000BCCF8091FF04813A09F0B7CF8091E800BA
:10245000877F8093E8008091030590910405892B84
:1024600061F468E083EF94E070E00E946806809178
:10247000E8008B778093E800A0CF60E090E080E0F8
:10248000F3CF8091FD048111C0CF97CF8091FF04DD
:10249000813A09F092CF8091030590910405892B30
:1024A00009F08BCF8091E800877F8093E8008091CE
:1024B000E80080FFFCCF80914E018093F100809175
:1024C000E8008E77B9CF8091FF04813209F075CF93
:1024D0008091030590910405892B09F06ECF8091BE
:1024E000E800877F8093E8000E94BC0581E090911E
:1024F0000105911101C080E080934E010E948F116F
:102500005CCF8091FF04813209F057CF8091E800C1
:10251000877F8093E8000E94BC058091020580932C
:102520004C014BCF8091FF04813A09F046CF809156
:10253000E800877F8093E8008091E80080FFFCCF6F
:1025400080914C01BACF803899F0823809F0C2C12D
:10255000809103058F70873008F0BCC18093E9003B
:102560008091EB0085FB882780F91092E90006C076
:102570008091FB049091FC04911182609091E8009D
:10258000977F9093E8008093F1001092F100809182
:10259000E8008E779BC1882309F489C1823009F055
:1025A00099C18091010581118CC1809103058F70C3
:1025B0002FEF280F263008F08DC18093E90020917D
:1025C000EB0020FF7EC1933031F48091EB008062FC
:1025D0008093EB0076C19091EB0090619093EB00BB
:1025E00021E030E001C0220F8A95EAF72093EA004B
:1025F0001092EA008091EB008860EACF81116AC1F5
:10260000109101051F778091E3008078812B8093E2
:10261000E3008091E800877F8093E8000E94BC057A
:102620008091E80080FFFCCF8091E3008068809378
:10263000E30082E0111183E08093FD044BC18058D8
:10264000823008F047C180910105909102058C3DD0
:1026500023E09207A1F583E08A838AE289834FB75A
:10266000F894DE01139620E03EE051E2E32FF0E023
:1026700050935700E49120FF03C0E295EF703F5F55
:10268000EF708E2F90E0EA30C0F0C7968D939D9347
:102690002F5F243159F74FBF8091E800877F8093E7
:1026A000E8006AE270E0CE0101960E94680680911F
:1026B000E8008B778093E8000DC1C096E7CF40918A
:1026C000030550910405292F33272330310509F4E0
:1026D00044C078F52130310509F46FC08BE390E0F8
:1026E000E0EEF9E02230310509F0F4C02091E80075
:1026F000277F2093E8002091050530910605821779
:10270000930708F49C0140E02115310509F064C0ED
:10271000411162C08091E80082FDC9CF8091FD0423
:10272000882329F2853019F28091E80083FFF2CFE7
:10273000BECF21323105A9F12232310509F0CAC0DC
:102740004115510509F443C04130510509F0C2C09B
:1027500086EB90E0E6EEF8E0C9CF9927813091054D
:10276000C1F0009759F0029709F0B4C0EDE2FAE029
:10277000E4918E2F90E0EDE2FAE007C0E7E5FAE0A1
:10278000E4918E2F90E0E7E5FAE0009709F4A2C00B
:10279000ADCFEBE3FAE0E4918E2F90E0EBE3FAE0CB
:1027A000F4CF4115510571F04130510509F092C047
:1027B00089E090E0EBE0FAE099CF82E190E0EBE194
:1027C000FAE094CF89E090E0E2EFF9E08FCF84E483
:1027D00090E0ECE9F9E08ACF8091FD04882309F4C8
:1027E00066CF853009F463CF8091E80083FD5FCF29
:1027F0008091E80082FD8ECF8091E80080FF84CF39
:102800009091F3008091F2002115310519F0883084
:10281000910550F041E0089709F040E08091E80010
:102820008E778093E80070CF44914093F100319609
:10283000215031090196E8CF803809F04BC08091D2
:10284000E800877F8093E8008091FE048093F10088
:102850009ECE81113FC0109101051230D8F58091B4
:10286000E800877F8093E8001093FE040E94BC0577
:10287000112311F084E005C08091E30087FDFACFB9
:1028800081E08093FD0442E061EC81E00E94DB0581
:1028900042E261EC82E00E94DB058091FD0484301D
:1028A00021F081E080934F0115C082E0FBCF809141
:1028B0000105813079F481E0933009F080E0809364
:1028C000FC041092E9008091E800877F8093E80083
:1028D0000E94BC058091E80083FF0AC08091E80057
:1028E000877F8093E8008091EB0080628093EB000B
:1028F000AA96E3E00C943C281F920F920FB60F9219
:1029000011242F933F934F935F936F937F938F93F4
:102910009F93AF93BF93CF93DF93EF93FF93D091A8
:10292000E900DF708091EC00C82FC17080FDC0E825
:102930001092E9008091F000877F8093F0007894F6
:102940000E94C0111092E9008091F000886080938D
:10295000F000CD2BCF70C093E900FF91EF91DF9194
:10296000CF91BF91AF919F918F917F916F915F9127
:102970004F913F912F910F900FBE0F901F90189580
:102980000E948F112FEF84E39CE021508040904003
:10299000E1F700C0000088E19AE00FB6F894A8952E
:1029A000809360000FBE90936000FFCF662309F410
:1029B0005DC08D3C41F40E94C20781958093E00484
:1029C0000E94681108958E3C19F40E94C207F6CF48
:1029D0008F3C31F40E94C20781958093DF04F0CFD1
:1029E000803D19F40E94C207F8CF893D29F40E9466
:1029F000A0078093E104E4CF8A3D21F40E94A00760
:102A00008195F7CF8B3D31F40E94A007819580938B
:102A1000E204D6CF8C3D19F40E94A007F8CF9FE2C4
:102A2000980F983070F4815D990B21E030E001C07F
:102A3000220F8A95EAF78091DE04822B8093DE04D0
:102A4000BFCF8D3D31F48091D80481608093D8044C
:102A5000B7CF8E3D21F48091D8048260F7CF8F3DAF
:102A600009F0AECF8091D8048460F0CF4091DF04AC
:102A70008D3C59F48091E00487FF0DC01092E00472
:102A800041110BC01092D60408C08E3C81F4809195
:102A9000E00418169CF3442381F08091E1049091A6
:102AA000E204892B09F08CCF1092D70489CF8F3C98
:102AB00049F447FFF0CF1092DF048091E0048111C8
:102AC000ECCFE0CF803D19F41416ACF3E4CF909135
:102AD000E104893D29F41916F4F61092E104DBCFE4
:102AE0008A3D19F497FFD7CFF8CF9091E2048B3D40
:102AF00029F497FFD0CF1092E204CDCF8C3D19F48A
:102B00001916CCF3C8CF9FE2980F983090F4815DEE
:102B1000990B21E030E0B90102C0660F771F8A955A
:102B2000E2F7CB0180959091DE0489238093DE0447
:102B3000B2CF8D3D31F48091D8048E7F8093D8043C
:102B4000AACF8E3D21F48091D8048D7FF7CF8F3DA1
:102B500009F0A1CF8091D8048B7FF0CF882381F139
:102B60009CEF980F913A28F40E94E6060E94FD0C13
:102B7000089590E2980F983050F4877091E001C06A
:102B8000990F8A95EAF7892F0E94CF0AEFCF9BE52C
:102B9000980F933028F490E080E00E946A0708952F
:102BA00098E5980F9B3128F490E080E00E9445075B
:102BB000089593E3980F933118F460E00E94D614BF
:102BC0000895CF93C82F8823B9F18CEF8C0F813AE9
:102BD000A8F580914E01813001F58091EB0487FFCB
:102BE0001CC0EC2FE695E695E695F0E0E854FE4F24
:102BF000828190E04C2F477021E030E002C0220F2C
:102C0000331F4A95E2F782239323892B81F08C2F7F
:102C10000E94E6060E94FD0C0AC0E2EBF1E088EBA0
:102C200091E02191C21799F38E179F07D1F78C2F4E
:102C30000E9411070E94FD0CCF91089580E28C0F35
:102C4000883068F4C77021E030E001C0220FCA95D7
:102C5000EAF780912C02822B80932C02EBCFEBE5DC
:102C6000EC0FE33040F4F0E0E05BFE4F808190E059
:102C70000E946A07E1CFE8E5EC0FEB3150F4F0E099
:102C8000EE0FFF1FED5AFE4F808191810E94450794
:102C9000D3CF83E38C0F833178F661E08C2F0E94D1
:102CA000D614CACF1F93CF93DF93182FEB010E9446
:102CB000E1158FE99FE00197F1F700C0000021972F
:102CC000C1F7812F0E94AE15DF91CF911F9108951A
:102CD000EF92FF920F931F93CF93DF93C62FD42FC2
:102CE000022FFC0185818823A9F0609343050E948F
:102CF00052119093420580934105C77081E001C055
:102D0000880FCA95EAF70E94560DCDB7DEB7E6E008
:102D10000C94392880914305681336C0E090410532
:102D2000F09042050E9452118E199F09883C91052E
:102D300058F510E21D0FCD17B9F080E28C0F8830E6
:102D400040F4C77081E001C0880FCA95EAF70E947D
:102D50004F0D183048F481E09D2F977001C0880F07
:102D60009A95EAF70E94560D6AE070E0802F0E9463
:102D70005216183050F6D77081E001C0880FDA95EE
:102D8000EAF70E944F0DC1CFC77081E001C0880FE4
:102D9000CA95EAF7F6CF80E09091D1042091D00453
:102DA000291739F1E92FF0E0EE52FB4F808187FBC4
:102DB000222720F98F779F5F93709093D104909191
:102DC000CF049F5F9093CF04882349F0813079F43A
:102DD0006AE070E08EE4211108C08BE406C06AE06E
:102DE00070E089EA211101C08AEA0E94521681E04E
:102DF000D3CF0895B0E0A0E0E0E0F7E10C9419280B
:102E00007C01FC018481882321F161E0C7010E94DB
:102E10003B0CEC01FC01E851FC47E730F105A8F55B
:102E2000E551F74D0C94682826E241EE61EEC701AA
:102E30000E94681680910102877059F0F701858120
:102E4000882339F08091EC0482FF03C082E00E9465
:102E5000C80BCDB7DEB7EAE00C94352827E245EE83
:102E600065EEE5CF26E241EE60EEE1CF27E245EEEA
:102E700064EEDDCF26E241EE62EED9CF27E245EEE9
:102E800066EED5CF28E241E0EBCFF70185818823BC
:102E900009F4AEC3109243059E0130572332310529
:102EA00008F091C384E090E00E9495289093EC0490
:102EB0008093EB04FE01E150F047E232F10520F48B
:102EC000EE50F74D0C9468288091EB04816080935C
:102ED000EB0495C08091EC0488608093EC048FC073
:102EE0008091EB048260F3CF8091EB048460EFCF9C
:102EF0008091EB048860EBCF8091EC048160EDCF92
:102F00008091EC048260E9CF8091EB048061DFCF97
:102F10008091EB048062DBCF8091EB048064D7CF9B
:102F20000E948F118091EB048068D1CF8091EB04D7
:102F30008C60CDCF8091EC048360CFCF8091EB0487
:102F40008E7FC5CF8091EC04877FC7CF8091EB0443
:102F50008D7FBDCF8091EB048B7FB9CF8091EB0447
:102F6000877FB5CF8091EC048E7FB7CF8091EC0442
:102F70008D7FB3CF8091EB048F7EA9CF8091EB043E
:102F80008F7DA5CF8091EB048F7BA1CF0E948F1105
:102F90008091EB048F779BCF8091EB04837F97CF59
:102FA0008091EC048C7F99CF8091EB0482FB992770
:102FB00090F921E0922790FB82F990FB83F987CF6B
:102FC0008091EC04982F909591708E7F892B90FBC7
:102FD00081F983CF9091EB04892F8F7B96FF8064DA
:102FE00076CF0E948F119091EB04892F97FB87F980
:102FF00080586DCF61E08EE090E00E94AB28609138
:10300000EB047091EC0484E090E00E94C9280E94D7
:103010008F1110CF60E0EFCF9091EB04892F8F7E5E
:1030200094FF806154CF9091EB04892F8E7F90FFA5
:1030300081604DCF9091EC04892F877F93FF88604A
:103040004CCF85E3D0C285E3DDC29E01205E3245D0
:1030500020323105A8F4811115C0CF7181E090E0D4
:103060009C0102C0220F331FCA95E2F7E901622FCB
:1030700083E090E00E94AB28CE010E94EF0BDACEF5
:10308000882381F0C3303CE7D30709F477C008F008
:103090005AC0C1159CE7D90709F463C0C130DC47A9
:1030A00009F472C0F7018581C081D181882309F4B8
:1030B00079C0CE010E94070B182F682FCE010E9405
:1030C0007B0BBE01812F0E9492090E94B109D82F6B
:1030D000C92FA82EF701C580B680B2949FE0B9220F
:1030E00080910102877001F10C2DCC20F1F08C2F22
:1030F000807F803469F080E28D0F8830A8F08C2FBB
:10310000807E803229F4F1E0FD1770F4BB2061F07D
:103110008091EC0482FF08C082E00E94C80B80917D
:103120000102877001E009F000E0DC2ED2948FE00C
:10313000D8222BE02D1508F495C0ED2DF0E0EC5EC3
:10314000F64D0C946828CB35FCE7DF0749F1CC3508
:103150002CE7D207D9F0CA35DC4709F0A3CF81E0CC
:103160001CC00E948F118FEF94E3ECE081509040DF
:10317000E040E1F700C000000E94C6066FEF7FEF5D
:1031800090E080E00E94C9280E94C0148091EC0465
:1031900082FB882780F991E089270E948C0E82CFDC
:1031A00080E0FBCFCE010E94480B182F8ACF1C2F46
:1031B0001F70C07F11F01295107FCC20B9F0112341
:1031C00069F080E28D0F883010F0A11009C0809165
:1031D0002C02182B10932C020E94FD0C8D2F40C046
:1031E00080910302182B10930302F6CF8D2F0E94BB
:1031F000AE151123B9F1D05ED83010F0A11004C083
:10320000812F0E94CF0A06C01095809103021823D7
:10321000109303020E94FD0C25C01C2F1F70C07F5D
:10322000C03211F01295107FAA2051F031E0A316A0
:1032300009F459C0CC2009F465C0BB2051F1CECFB0
:103240008091EC0482FD21C0CC20C9F0112339F01B
:1032500080912C02182B10932C020E94FD0C80E010
:103260000E94E115ED2DE850FF0B349708F092C154
:103270000E948F0760E0C7010E943B0CEACD80E00E
:103280000E94AE15112371F3BBCFCC2099F0B11081
:1032900004C0812F0E94560DE5CF81E0B812E2CF25
:1032A00080910202912F98231917E1F2182B1093A5
:1032B0000202D8CFB110D6CF812F0E944F0D90912E
:1032C0000202812F892329F0812F80958923809301
:1032D00002028091D901912F982321F21095182391
:1032E0001093D901BFCFCC2029F095E09B1508F4AD
:1032F000B9CFCFCFE4E0EB1508F4B4CF812F0E9413
:103300004F0DB0CFBB20D1F3F9E3AF120DC02FEFBB
:1033100037EE83E0215030408040E1F700C00000EC
:103320008D2F0E94AE159ECFEFE3FCE93197F1F7A8
:10333000F5CF8C2F86958695837069F0813009F0E2
:1033400091CF8D2F9C2F9370C11002C080E090E030
:103350000E94450787CF8D2F9C2F9370C11002C00C
:1033600080E090E00E946A077DCF6C2D8D2F0E9437
:10337000D61478CF8C2F837009F03FC0C11072CF64
:103380004D2F429546954770440F440F2D2F2F70B7
:1033900030E0042E02C0220F331F0A94E2F790E0BF
:1033A00080E0D4FF09C08FE090E002C0880F991F31
:1033B0004A95E2F780959095C695C695C370C23040
:1033C00099F078F44091780250917902C13039F047
:1033D000822B932B842395230E94EF0B43CF242B26
:1033E000352B822B932BF8CF822B932B20917802B5
:1033F0003091790282279327EFCF8695CC2011F068
:103400008C2F8170882309F42DCF4D2F429546953E
:103410004770440F440F2D2F2F7030E0042E02C050
:10342000220F331F0A94E2F790E080E0D4FF09C036
:103430008FE090E002C0880F991F4A95E2F78095CF
:103440009095C695C695C370C23099F078F44091B6
:10345000A0025091A102C13039F0822B932B84231A
:1034600095230E94B10BFECE242B352B822B932B60
:10347000F8CF822B932B2091A0023091A1028227BA
:103480009327EFCFCF70CC2029F08C2F0E94DF0B39
:103490008D2F00CF8D2F0E944F0D8C2F0E94B60BC9
:1034A000E1CE8D2FF2EFAF1699F1FA1570F020EF03
:1034B000A216D1F031EFA31691F0CC2009F456C03A
:1034C000B1108CCE8C2F8F7127C093EFA91639F1D4
:1034D000E4EFAE12F2CF9091EC0492FD2EC08C2F4F
:1034E0008F71CC20D9F218C0CC2069F0F4E0FB1524
:1034F00008F4B8CECF7181E090E002C0880F991F28
:10350000CA95E2F7B8CF25E02B1508F4ABCEF2CF81
:103510008C2F8F71C110C2CF0E94DF0BA3CE90E021
:1035200080E0CC2009F49DCFCF7181E090E002C013
:10353000880F991FCA95E2F794CFCC2061F08C2FA9
:103540008F7192FFE9CF98E0899F90011124236049
:1035500020930102E1CF81E00E94C80BE1E0EB156E
:1035600008F080CE82E00E94C80B7CCEBB2079F0B0
:10357000893341F4FFEF27EE33E0F1502040304033
:10358000E1F7CCCE8FE39CE90197F1F7C7CE8C2F02
:103590008F7184CF002309F46DCE8091010280FDEC
:1035A00069CEF70115828695869586950E94DF0B78
:1035B000C7010E94FA16809101028695869586952C
:1035C0000E94B60B57CEC631FCE7DF0709F03DCDB0
:1035D00080912C028A7A91E009F490E09093D801CE
:1035E00081112FCD89E20E9411070E94FD0C22CC8F
:1035F000C6312CE7D20709F028CD8091D80181117E
:1036000022CD89E20E94E606F0CFCF93DF9380912E
:103610000002807F09F04DC08091FF01882309F4EA
:1036200048C0E091400550910705C091FB01D09141
:10363000FA016091FC017091FD0147E05E17C9F14C
:103640008E2F90E0E49FF0011124E85FFA4F24816F
:10365000222391F1489FF001499FF00D1124DF01D1
:10366000A85FBA4F11962C9111972C1325C02C915D
:103670002D1322C015962C91159721111DC012965D
:103680002D913C91261B370B283C3105A8F48091E5
:1036900000028F70806180930002E25FFA4F8081A8
:1036A0008F70806180838AEF91E00E94FA160E94F9
:1036B000FD0ADF91CF910895FC013196E770BECFEE
:1036C000A4E1B0E0E6E6FBE10C9417288C0186E06B
:1036D000F801DE011F9601900D928A95E1F7F8013D
:1036E0008481E5809AEFA92E91E0B92E9091FE0198
:1036F000911128C0882319F1EE20F1F0C8010E9431
:10370000F40BF82E8823C1F087E0F801D501019071
:103710000D928A95E1F78091FE01813031F480911C
:10372000FA019091FB010E943B0B0E94051B8F2D1B
:103730006496ECE00C943328C8010E94FA16FF242A
:10374000F394F5CFD080C18082809380F090FF0108
:103750002091FC013091FD01A401421B530BFF207D
:1037600009F4D9C0483C510508F092C08823F9F209
:103770009091FB0180910002282F207F09F056C014
:10378000C91214C09091FA01D91210C0E11048C0BA
:103790008F708061809300028AEF91E00E94FA1698
:1037A00080910002F8018683F12CC1CFE11038C06E
:1037B0006C2D8D2D0E944D056C2D8D2D0E944D057B
:1037C000E82E8111F1CFDF86C88A8F8598890E9403
:1037D0003B0B292F22952F70243058F49F702230F4
:1037E00088F0992399F0F8019681907F79F4FE2C66
:1037F0009ECF2A5F2F70223068F0C8010E94FA160F
:10380000EF2CF5CF992311F0882389F3805E88305F
:1038100070F3F3CF803F58F3815F833070F7E7CFC9
:1038200080910002816080930002BECFC91207C060
:103830009091FA01D91203C0EE2009F48DC0C8019D
:103840000E94F40B882309F477CFEE2009F474CF9B
:1038500080910002803288F02091FA013091FB01C2
:10386000398728879B868A869091FE019C871D86D2
:103870008E87CE0108960E94FA1687E0F801AAEF1B
:10388000B1E001900D928A95E1F70E94051B57CF98
:1038900090910002292F207F51F48AEF91E00E943D
:1038A000FA1687E0F50111928A95E9F77DCF882312
:1038B00009F43DCF8091FB018C1110C08091FA0179
:1038C000D8120CC0E1100AC09683C8010E94FA16F3
:1038D00087E0F50111928A95E9F729CFC8010E9486
:1038E000F40B882309F428CFEE2009F425CF80912A
:1038F0000002803210F22091FA013091FB013A83EC
:1039000029839C828B829091FE019D831E828F83EE
:10391000CE010196B0CF483C5105D0F6882309F47A
:103920000ECFFE2CEE2009F407CF8091FB018C1105
:1039300020C08091FA01D8121CC08091000280FD45
:103940000FC0982F907F61F08683903F31F0982FC1
:10395000907F905F8F70892B8683C8010E94FA1632
:1039600087E0F801AAEFB1E001900D928A95E1F7A6
:10397000DECEC8010E94F40B81117FCF809100023E
:10398000816080930002C8010E94FA16D0CEABE19C
:10399000B0E0EDECFCE10C9420284E8B5F8B688F3F
:1039A000798F8A8F9B8F9111109203021D8A86E076
:1039B000FE017696DE011F9601900D928A95E1F741
:1039C0008B89882351F061E0CE010F960E943B0C59
:1039D00061E0CE010F960E943B0C87E0FE013F960E
:1039E000DE01189601900D928A95E1F7CE010896B6
:1039F0000E94601B81112AC087E0FE013896DE011B
:103A0000119601900D928A95E1F78C858823F1F04B
:103A10002091070530E0C9010196877099274091F0
:103A2000400548171906E9F097E0929FD001939F4F
:103A3000B00D1124A85FBA4FFE01319601900D928E
:103A40009A95E1F7809307050E94FD0A17E080919F
:103A5000400590910705891312C06B96E3E00C9422
:103A60003C280E948F11109207051092400587E0B4
:103A7000EAEFF1E0DF011D928A95E9F7E7CF819F38
:103A8000C0011124885F9A4F0E94601B882329F38C
:103A90008091400590E001968770992780934005BA
:103AA000D6CF2F923F925F926F927F928F929F928A
:103AB000AF92BF92CF92DF92EF92FF920F931F933C
:103AC000CF93DF938091CD04882309F489C0C091FE
:103AD000CB04D091CC040E9452118C1B9D0BC29739
:103AE00008F45FC00E9452119093CC048093CB04E1
:103AF00082EC92E090939E0280939D028091E30479
:103B000060E0882309F486C083EA98E00E94F10D02
:103B10008091A0029091A1020E94170C882341F08D
:103B2000813041F160E084E998E00E94F10D05C028
:103B300060E08EE998E00E94360E60E081E998E04E
:103B40000E94F10D60E08BE898E00E94360E8091B3
:103B5000A0029091A1020E94170C823009F452C079
:103B600068F0833009F452C060E083E798E00E9477
:103B7000360E09C060E089E998E0DDCF60E085E8B5
:103B800098E00E94F10D60E080E798E00E94F10D5E
:103B90000E948F0781FB662760F98AE698E00E9401
:103BA000360E8091C4049091C504892BC1F5809193
:103BB000CA048823A9F00E94D7060091C604109178
:103BC000C7042091C8043091C904601B710B820B9B
:103BD000930B6F3F7F4F8F4F9F4710F40E94490E0A
:103BE000DF91CF911F910F91FF90EF90DF90CF90D9
:103BF000BF90AF909F908F907F906F905F903F901D
:103C00002F90089560E08FE798E0BBCF60E089E7F0
:103C100098E0B7CF86EA98E00E94F10DC2CF80917C
:103C2000CD04882321F28091C3048111C0CF0E946A
:103C3000640E2091C4043091C5042115310509F4A6
:103C4000B6CF80E041E050E0082F10E01A01082EC6
:103C500002C0220C331C0A94E2F7B10162237323E1
:103C6000672B11F48F5FF0CF9091C20490FF95C045
:103C7000880F880F880F8093450110924801895F53
:103C80008093460183E08093490124E630E047E0D9
:103C900050E063E471E088E70E946D25892B09F00C
:103CA00086CFA80125E0440F551F2A95E1F78091A2
:103CB000C20480FF84C0E2EAF2E080E2DF011D92EC
:103CC0008A95E9F7AAEAB1E006EA11E08EEAC82E81
:103CD00081E0D82E97E0592E772473948D91E801D6
:103CE00029918E01240F352F311D2E533D4FE82F82
:103CF000F0E0EE55FD4F90E080E0652C681A872CCF
:103D0000082E01C0880C0A94EAF77901A12CE7017A
:103D1000B9907E01B820662D6A196770962E062E1E
:103D2000000C770BDB2D01C0DD0F9A94EAF771953B
:103D3000619571096770772701C0B6946A95EAF7B3
:103D4000BD2A6081962E9B289082A39468E0A612DB
:103D5000DECF019631968830910579F6CA16DB06DA
:103D600009F0BCCF04E610E020E230E042EA52E085
:103D700060E488E70E94F725892B09F018CFE1015C
:103D8000C095D0958091C4049091C504C823D923CF
:103D9000D093C504C093C4040ACF8295880F80765F
:103DA0008093450198013695279536952795209360
:103DB0004801815E809346012093490166CF4E53AE
:103DC0005D4F04E610E020E230E0D2CFAFE0B0E09B
:103DD000ECEEFEE10C9416288E010F5F1F4F8AE077
:103DE000F80111928A95E9F78BE8C82E81E0D82E68
:103DF000F12CE12CAA24A394B12C26E9822E21E0F7
:103E0000922EF60181916F018F3F09F442C0F89420
:103E1000E82FE295EF70F0E021A18F70A50102C0BC
:103E2000440F551F8A95E2F7CA01922F982B91A350
:103E300092A18095892382A3789400C0E0E9F1E003
:103E4000712C31E021912F3F09F49EC0A22FA29541
:103E5000AF70B0E090968C9190E02F7002C0959575
:103E600087952A95E2F780FD8FC0832F782A330F3C
:103E70008E169F0639F7F601319780818F3F11F03A
:103E80000E94700850EA5A95F1F7F801EE0DFF1DF7
:103E900070828FEFE81AF80A95E0E916F10409F04C
:103EA000B0CF4AE050E0B8018CE692E00E9477285B
:103EB000009741F02AE0F801ACE6B2E001900D92E3
:103EC0002A95E1F70091770210E006581D4F892BE3
:103ED00009F45CC081E0809331020E9452119093FA
:103EE000300280932F02D12CC090E304CC2009F43F
:103EF000A8C07E01EBE0EE0EF11C85E0F701119207
:103F00008A95E9F7809167028A3008F065C04BE135
:103F100050E1B701C8010E94CA0C882309F480C08F
:103F20004DEF5EE0B701C8010E94CA0C882309F476
:103F300077C04EEC5FE0B701C8010E94CA0C88232D
:103F400009F46EC043EA5EE0B701C8010E94CA0CE2
:103F5000882309F465C0109267028091760290E090
:103F600045E050E0B70186589D4F0E94772821E038
:103F700020933802892B09F046C0C12C8C2D8D2945
:103F80002F96EDE00C94322880E070CFD090310273
:103F9000DD2009F4A8CFE0902F02F09030020E94BB
:103FA00052118E199F09059708F49DCF45E050E006
:103FB0006CE672E0C8010E947728892B59F085E0F1
:103FC000ECE6F2E0D80101900D928A95E1F71092AB
:103FD00031028ACFD12CFBCFA0903202B0903302B5
:103FE0000E9452118A199B09843F914008F08FCF9B
:103FF00080913802882309F285E0F70111928A95B1
:10400000E9F710923802A0917602B0E0A658BD4FB1
:1040100085E0FE013B9601900D928A95E1F7AECFC7
:10402000809167028F3F31F08F5F809367028A3003
:1040300008F493CF0E94521190933302809332027E
:10404000D7CFE0907602F12CA70146585D4F7A0158
:1040500085E0F801ACE4B2E001900D928A95E1F7B9
:1040600065E070E08CE492E00E94F00780934B02E0
:1040700085E0E1E5F2E0D70101900D928A95E1F744
:1040800088E0EEECF4E0A7E5B2E001900D928A95AD
:10409000E1F768E070E087E592E00E94F007809326
:1040A000560280905F0290906002A0906102B090F2
:1040B00062028091340290913502A0913602B09153
:1040C000370288169906AA06BB0609F457CF8092D4
:1040D000340290923502A0923602B09237020E94CA
:1040E000D706861A970AA80AB90A8092680290929F
:1040F0006902A0926A02B0926B0240CFA6E0B0E0E3
:10410000E4E8F0E20C941F280E9452118C01809187
:104110002D0290912E028017910781F019821A8248
:104120000E945211682F49815A81792F80E090E0D6
:104130000E94C71C10932E0200932D022696E4E0E5
:104140000C943B281F921FB61F9211248F939F93AC
:10415000AF93BF938091ED04811113C08091EE0461
:104160009091EF04A091F004B091F1044196A11D4B
:10417000B11D8093EE049093EF04A093F004B093EC
:10418000F104BF91AF919F918F911F901FBE1F901F
:104190001895CDB7DEB72F970FB6F894DEBF0FBED8
:1041A000CDBF85B7806885BF85B7806885BF84B778
:1041B000877F84BF0FB6F894A895809160008861CE
:1041C00080936000109260000FBE80E890E00FB610
:1041D000F89480936100909361000FBE81E080931A
:1041E0004F018AE698E09093AF018093AE010E9460
:1041F0006C050E940D068091E20084608093E200CD
:1042000078948091FD048823A1F01091E9001F703B
:104210009091EC00892F817090FD80E8182B10920E
:10422000E9008091E80083FD0E94C0111F70109387
:10423000E90082E084BD93E095BD9AEF97BD80933D
:104240006E00109268021092690210926A02109237
:104250006B028091D80080618093D8002AE12A9572
:10426000F1F700C08091D900182F117080FD04C0B3
:104270000E946C051092FD041093E3041093E40473
:104280001093380111110E949B26EEECF4E088E0B7
:10429000DF011D928A95E9F78091380191E0892725
:1042A000809391028091380190939402809138011B
:1042B00080913801811106C084EF80934A0185EF17
:1042C00080934B0160E080E00E94220861E080E082
:1042D0000E942208EFE8F1E03197F1F700C00000FA
:1042E00010E080919402181708F4CBC08091380137
:1042F0008091380195E0811190E09093770285E0FC
:10430000891B809376020BE811E050E9E52E51E01D
:10431000F52ED8018D918D018F3F11F00E9470080C
:10432000E016F106B1F700E911E046E9E42E41E0BC
:10433000F42EF80181918F018F3F11F00E947008D7
:10434000E016F106B1F78AE0EAE7F2E0DF01282F94
:104350001D922A95E9F7ECE6F2E0DF011D928A95BD
:10436000E9F790E080E00E949528853E9E4F09F491
:1043700061C065EE7EEF90E080E00E94C92860E0B9
:1043800082E090E00E94AB2881E090E09093790277
:104390008093780261E083E090E00E94AB2860E0C7
:1043A00074E184E090E00E94C92860E086E090E03B
:1043B0000E94AB2860E087E090E00E94AB2840E0DC
:1043C00050E0BA0188E090E00E94BD2860E083E2FE
:1043D00090E00E94AB2860E08CE090E00E94AB2867
:1043E00060E08DE090E00E94AB2819821A821B8267
:1043F0001C821D821E821F82188648E050E067E101
:1044000070E0CE0101960E949B2840E050E0BA0186
:104410008FE190E00E94BD2840E050E0BA018FE0BB
:1044200090E00E94BD2840E050E0BA0183E190E0B6
:104430000E94BD2882E090E00E948D288093840233
:1044400084E090E00E9495289093EC048093EB0424
:104450000E94E61EEFEFF6E721E0E150F040204039
:10446000E1F700C000000E94E61E80917A0280FF02
:104470001AC06FEF7FEF90E080E00E94C9280E9491
:10448000C60660E0812F0E940608082F61E0812F98
:104490000E940608E12FF0E0EE56FD4F880F802BBA
:1044A00080831F5F1ECF83E090E00E948D2890E004
:1044B0000E94EF0B8091E304882309F4BCC083E0E1
:1044C0008093C20480FDB9C080E880939F020E945F
:1044D00039256BE070E08BE193E00E943C0E88236D
:1044E000E9F18091C20465E070E081FDA8C086E139
:1044F00093E00E943C0E882389F16DE070E084E037
:1045000093E00E943C0E882349F10E94D706605A2E
:1045100075418F4F9F4F6093C6047093C70480937B
:10452000C8049093C904E2ECF2E080E092E0DF017D
:104530009C011D9221503040E1F7F0939E02E093E0
:104540009D028FEF9FEF9093C5048093C40481E098
:104550008093CD048093CA041092C3048091E30435
:10456000811102C00E949E2689E391E09093E804A5
:104570008093E70498E1C92ED12C24E8A22E22E0F2
:10458000B22E7724739432E0832E912C8091FD0417
:1045900012E1853009F488C00E94E61E05E812E0A9
:1045A0008AE7E82E82E0F82ED701F80191918D91EB
:1045B00022E0EF38F20709F481C09817B9F330917F
:1045C000E3043F87612CD7015D907D01F8012190C4
:1045D0008F01251439F1412C332433942524822D65
:1045E0008321C1F0FF85FF23A9F049866A860E94D6
:1045F00052119C878B8721E02D8791E0852D8321A7
:1046000009F490E09E8749855A856B857C858D8568
:104610000E94C71C4394330C36E04312E0CFF801EC
:104620003197508263948AE06812CDCF0E94870848
:104630006624639448C080E043CF80E246CF81E1A6
:1046400093E057CF8091FD04843021F10E94490E00
:104650001092ED0430E40FB6F894A895C092600073
:104660000FBE3093600083B7817F846083BF83B7C0
:10467000816083BF7894889583B78E7F83BF0FB6A0
:10468000F894A895809160008861809360001092F2
:1046900060000FBE0E94E61EEAE7F2E08191811100
:1046A0006BC1AE16BF06D1F78091FD04853009F4C9
:1046B000C9CF0E948F110E948F076ECF98137FCFB2
:1046C0000E947E20612CE090E304EE2019F00E940D
:1046D000CB16E82E80919502882351F01092950216
:1046E0008091D0048093D1048091CE048093CF0434
:1046F000F12C80919402F81688F08091E3048823CD
:1047000019F00E94CB16E82AEE2009F443C00E945B
:1047100087080E94511D0E94640E40C061E08F2DE9
:104720000E940608182F60E08F2D0E940608E12FD6
:10473000EE0F8E2B0F2D10E0D801AE56BD4FEC9131
:104740009E2F9370891721F1EE0FEE0FE82BEC935B
:10475000809191028F0DEF70F0E0EA56FE4F015705
:104760001D4F5080D8019C91590E5C92B1E060E0E1
:10477000B51524F0EFEF5E161CF461E00E944508C9
:10478000852D550C990BB4010E945428D8018C93A7
:10479000F394AFCF0E94511D6110BDCF86E0EDEDC7
:1047A000F4E0DE01119601900D928A95E1F74090B8
:1047B000DE04E090DF04F090E0045090E1046090AB
:1047C000E2041092DF041092E0041092E1041092CF
:1047D000E2048F2D8E2909F447C00091DB0410916B
:1047E000DC040E9452119C01201B310B9091D604D5
:1047F000992309F4E7C025313105B0F19F3F19F045
:104800009F5F9093D604EE2059F00E94C2079FEF5D
:104810001E140CF491E0899F802D11248093DF04F5
:10482000FF2059F00E94C20791E01F140CF09FEF87
:10483000899F802D11248093E0048091DF048823D8
:1048400099F01091E004112379F00E94E207882387
:1048500009F486C08093DF04812F0E94E207882339
:1048600009F481C08093E004852D862909F446C0AF
:104870000091D9041091DA040E9452119C01201B6E
:10488000310B9091D704992309F497C02135310554
:10489000A8F19F3F19F09F5F9093D704552059F0DE
:1048A0000E94A0079FEF15140CF491E0899F802DC2
:1048B00011248093E104662059F00E94A00791E042
:1048C00016140CF09FEF899F802D11248093E20431
:1048D0008091E104882391F01091E204112371F09A
:1048E0000E94E207882309F441C08093E104812FEC
:1048F0000E94E2078823E9F18093E2048091DE04BC
:10490000841117C08091DF04882311F0E81211C0D0
:104910002091E004222311F0F2120BC09091E204E6
:10492000992311F0691205C03091E104332309F491
:104930003FC00E94681186E0FE013196ADEDB4E003
:1049400001900D928A95E1F70E948F07909196024F
:10495000891709F41BCE809396020E94D70616CEC3
:104960007092DF0479CF7092E0047ECF7092E10400
:10497000BECF7092E204C2CF8091FC04882309F478
:1049800093CE80E189BD19BD09B400FEFDCF8091B1
:10499000D8008F7D8093D8008091E0008260809362
:1049A000E0008091E00081FDFCCF0E948F117CCE61
:1049B000822B892B09F4BFCFBCCF2B30310508F0F7
:1049C0006ACF9CCF2B30310508F01ACF4DCFEF9234
:1049D000FF920F931F93CF93DF93182FEB01109249
:1049E000BC0084EA8093BC000E9452117C0180913B
:1049F000BC0087FF27C08091B900887F883029F0EC
:104A00008091B900887F803189F51093BB0084E8DC
:104A10008093BC000E9452118C018091BC0087FFE2
:104A20001EC02091B900287F90E080E0283191F0ED
:104A300081E090E0203411F490E080E09195819540
:104A4000910908C0C7010E945E11C817D90778F6FE
:104A50008EEF9FEFCDB7DEB7E6E00C943928C801A2
:104A60000E945E11C817D907C0F6F2CF8FEF9FEFF3
:104A7000F1CF1092B9008CE08093B80008950F93A5
:104A80001F93CF93DF93EB018093BB0084E8809367
:104A9000BC000E9452118C018091BC0087FF11C0A4
:104AA0002091B900287F81E090E0283211F490E055
:104AB00080E0919581959109DF91CF911F910F91A0
:104AC0000895CF3FDC0741F3C8010E945E11C8176B
:104AD000D90710F78EEF9FEFEFCFB0E0A0E0E3E74C
:104AE000F5E20C941628782E5B016A0189010E9478
:104AF00052114C01C1E0D0E00431110558F0C5E07D
:104B0000D0E00F3F100731F0C80164E170E00E946F
:104B1000FD27EB01BE01872D0E94E7247C0197FF52
:104B200009C00F3F1007B1F3C4010E945E110817BE
:104B3000190780F7E501CA0CDB1CCC15DD0511F067
:104B4000F7FE09C084E98093BC00C701CDB7DEB78A
:104B5000EDE00C943228B80189910E943F257C0138
:104B6000ECCFB0E0A0E0E7EBF5E20C941628782E4D
:104B70005B016A0189010E9452114C01C1E0D0E041
:104B80000431110558F0C5E0D0E00F3F100731F0B7
:104B9000C80164E170E00E94FD27EB01BE01872D92
:104BA0000E94E7247C0197FF09C00F3F1007B1F373
:104BB000C4010E945E110817190780F7E501CA0CAD
:104BC000DB1CCC15DD0511F0F7FE09C084E98093EC
:104BD000BC00C701CDB7DEB7EDE00C943228FE0172
:104BE0008491B8010E943F257C012196EACFB0E074
:104BF000A0E0EDEFF5E20C941528682E762E5A0110
:104C000069010E9452114C01C1E0D0E0043111054C
:104C100058F0C5E0D0E00F3F100731F0C80164E163
:104C200070E00E94FD27EB01BE01862D0E94E72463
:104C30007C0197FF1DC00F3F1007B1F3C4010E9414
:104C40005E110817190780F784E98093BC00C7013B
:104C5000CDB7DEB7EEE00C943128B80189910E94FF
:104C60003F257C01CC16DD0679F3F7FEF6CFECCFBD
:104C7000B801872D0E943F257C01E501CA0CDB1C91
:104C8000F1CF8EE14A9B02C08150E1F74A9BFECFF3
:104C900008955A9880E28A95F1F75A9A0895FC018E
:104CA0003BE03A95F1F798E020E080E031E040E128
:104CB0004A95F1F7880F4A9B02C08160232742E0A2
:104CC0004A95F1F7000040E14A95F1F7915079F7E4
:104CD00090E19A95F1F799B132E03A95F1F7000039
:104CE00040E14A95F1F792FB992790F992272081AC
:104CF000920F90830895A1E0B0E0E1E8F6E20C9411
:104D00001D2819828C017C01E60EF11C0E151F0571
:104D100041F481E09981911180E02196E6E00C94C4
:104D200039280E944126CE0101960E944F26F801A3
:104D300081938F01EBCF529A5A9A089552985A9ABA
:104D4000EA9AE9E6F0E080818F7C808308956150E3
:104D5000770B91E001C0990F6A95EAF720E031E006
:104D6000911108C0222391F05A9A80E28A95F1F7B6
:104D70005A980895492F482339F05A9A232740E238
:104D80004A95F1F79695ECCF5A98F9CF5A98EDCF0E
:104D9000FF920F931F93CF93DF93EC018C01060FCB
:104DA000111DC017D10729F4CDB7DEB7E5E00C948B
:104DB0003A28F9900E94492668E08F2D0E94A72684
:104DC000F0CF1F920F920FB60F9211240F931F93E3
:104DD0002F933F934F935F936F937F938F939F9303
:104DE000AF93BF93EF93FF93CF93DF930F92CDB722
:104DF000DEB719820E944126CE0101960E944F26FD
:104E0000082F069506950695282F22952570902F38
:104E10009570290F922F937026952695920F9827BB
:104E200097708981982B09F05CC0083008F059C050
:104E300080E18A95F1F75A9A529A82E08A95F1F7C1
:104E400000C05A9888E0089F80011124D801A05022
:104E5000BF4F1696ED91FC9117973097A9F060918E
:104E6000890170918A0114962D913C911597260F16
:104E7000371F11968D919C911297680F791F139689
:104E80004C9113978C910995F801E050FF4F638185
:104E9000662351F02091890130918A0184819581A6
:104EA000820F931F0E94C8260E94492680E18A959E
:104EB000F1F75A9852985A9A80E18A95F1F7F801D9
:104EC000E050FF4F6081662351F0209189013091BD
:104ED0008A0181819281820F931F0E947B260E940A
:104EE00041260F90DF91CF91FF91EF91BF91AF914C
:104EF0009F918F917F916F915F914F913F912F91F2
:104F00001F910F910F900FBE0F901F9018950F9348
:104F10001F93CF93DF93EC0108970CF04CC0F894EB
:104F2000529A5A9885E08A95F1F700009C2F969541
:104F300095708C2F8570980F892F83709695969514
:104F400023E0CC0FDD1F2A95E1F7980F8E01092B86
:104F50000E94492600C068E0802F0E94A72680E1B9
:104F60008A95F1F752985A9A4A9B1EC087E090E0C2
:104F70004A991CC0FE01E050FF4F63816623F9F09F
:104F80002091890130918A0184819581820F931F3C
:104F90000E947B26811113C0529A5A9A7894DF910D
:104FA000CF911F910F91089500C0DECF019729F492
:104FB000529A5A9A789480E0F2CF00C0D9CF0E94DA
:104FC000412680E28A95F1F75A98529A80E18A95B3
:104FD000F1F7C050DF4F6881662351F020918901BD
:104FE00030918A0189819A81820F931F0E94C8267D
:104FF0000E944926789481E0D2CFAA1BBB1B51E1C5
:1050000007C0AA1FBB1FA617B70710F0A61BB70B38
:10501000881F991F5A95A9F780959095BC01CD01DD
:1050200008952F923F924F925F926F927F928F924C
:105030009F92AF92BF92CF92DF92EF92FF920F9327
:105040001F93CF93DF93CDB7DEB7CA1BDB0B0FB631
:10505000F894DEBF0FBECDBF09942A8839884888EE
:105060005F846E847D848C849B84AA84B984C88484
:10507000DF80EE80FD800C811B81AA81B981CE0F7B
:10508000D11D0FB6F894DEBF0FBECDBFED01089560
:10509000991B79E004C0991F961708F0961B881F8A
:1050A0007A95C9F78095089597FB072E16F400941A
:1050B00007D077FD09D00E94FD2707FC05D03EF4FC
:1050C000909581959F4F0895709561957F4F0895B4
:1050D000EE0FFF1F0590F491E02D0994FB01DC0118
:1050E00002C005900D9241505040D8F70895FB0141
:1050F000DC0104C08D910190801921F44150504091
:10510000C8F7881B990B0895FB01DC0102C00190D0
:105110000D9241505040D8F70895F999FECF92BDB5
:1051200081BDF89A992780B50895A8E1B0E042E0E2
:1051300050E00C94D128DC01A40FB51F4150504021
:1051400048F0CB01840F951F2E910E94AC2841504E
:105150005040D0F70895262FF999FECF92BD81BD1A
:10516000F89A019700B4021639F01FBA20BD0FB6A5
:10517000F894FA9AF99A0FBE08950396272F0E9481
:10518000AC280E94AB28252F0E94AC28242F0C9419
:10519000AC280196272F0E94AC280C94AB28DC0188
:1051A000CB01FC01F999FECF06C0F2BDE1BDF89A32
:1051B000319600B40D9241505040B8F70895F894DC
:1051C000FFCFA312CB126A14CB126A14FE121F1364
:1051D0006A141C1429143217361714172E173A178D
:1051E0003E1742179E171318A61770177417AA17A1
:1051F0007817AE17BA1784170C188817BE178C17B4
:10520000C217EA179017C617F1179617CC17D417BD
:105210007C17B2178017B6179A17D017E017FA172E
:105220000A186A17A2171A18D718D7180D190D19C6
:105230009919B51932193219BA19421A511A511A53
:105240000000000100000000000000050100000057
:105250000506000000000000000000010B00000037
:10526000000000080C0000000000000000006C08B6
:10527000041400000000000001E306B60CAF0CA807
:105280000CA10C0021007F220003F5F400000100B6
:10529000818283E200E900EA00B500B600B700CDE4
:1052A000008301CC008A019201940121022302248F
:1052B000022502260227022A02B300B4006F007002
:1052C000009F01CB019F02A0024B026697C63435B6
:1052D000F6F73133323600FF0100010000FFFF0016
:0E52E00000010001FF0000081018181008005F
:00000001FF
